:1000000045C00000C7C40000D9C400005CC00000A7
:100010005AC0000058C0000056C0000054C0000084
:1000200052C0000050C000004EC000004CC0000094
:100030004AC0000048C000009CC4000044C000004A
:1000400042C0000040C000003EC000003CC00000B4
:100050003AC0000038C0000036C0000034C00000C4
:1000600032C0000030C000002EC000002CC00000D4
:100070002AC0000028C0000026C0000024C00000E4
:1000800022C0000020C000001EC0000011241FBEBE
:10009000CFEFD0E1DEBFCDBF13E0A0E0B1E0EEEAEC
:1000A000FBE000E00BBF02C007900D92A033B10748
:1000B000D9F727E0A0E3B3E001C01D92A733B20750
:1000C000E1F7E5D272C59CCF1D9A95E39A95F1F7B9
:1000D00000001C981E981F9A8BBB85E38A95F1F748
:1000E00000001D9808951D9A95E39A95F1F7000078
:1000F0001C981E9A1F988BBB85E38A95F1F7000028
:100100001D9808951D9A95E39A95F1F700001C98A3
:100110001E9A1F9A8BBB85E38A95F1F700001D9804
:1001200008951D9A95E39A95F1F700001C9A1E9880
:100130001F9A8BBB85E38A95F1F700001D980895FF
:100140001D9A95E39A95F1F700001C9A1E9A1F9844
:100150008BBB85E38A95F1F700001D9808951D9AE1
:1001600095E39A95F1F700001C9A1E9A1F9A8BBB93
:1001700085E38A95F1F700001D9808950F931F936A
:10018000CF93DF93162FC42F8854BCDF812F1A30F2
:1001900030F4880F810F880F8C5B96DF08C090E0E9
:1001A0000A97982F990F890F880F805C9CDF85E054
:1001B000C89FE0011124CC59DF4F05E088811A3037
:1001C00010F4AFDF01C0BCDF015021960111F6CF62
:1001D00080E01A3028F4DF91CF911F910F91A1CFC9
:1001E000DF91CF911F910F91ABCFEF92FF920F93C1
:1001F0001F93CF93DF93F62EEA01885483DF89E0C3
:100200008F1538F08F2D880F8F0D880F8C5B5CDF7A
:1002100009C08F2D90E00A97982F990F890F880FAA
:10022000805C61DF85E0E82E88818823B1F19AE067
:10023000F91202C080E457DF00E010E0888199E005
:100240009F1570F090E08097E89EF001E99EF00D18
:100250001124EC5FFE4FE00FF11F808162DF0DC0C3
:1002600090E08097E89EF001E99EF00D1124EC5F8C
:10027000FE4FE00FF11F808163DF0F5F1F4F0530DE
:100280001105E1F689E08F1518F080E04ADF02C021
:1002900080E056DF2196F394C7CFDF91CF911F9175
:1002A0000F91FF90EF900895CF93DF93C62FD42F37
:1002B000885428DFC03438F480E48C0F05DF8D2F9C
:1002C000DF91CF912ECF8C2F0EDF8D2FDF91CF912D
:1002D00037CFAC015C5F9C0120583F4FFC0111926D
:1002E000CF01E217F307D1F74E175F07A1F7089583
:1002F000CF93DF93EEDFC8EB8C2F04DF80E402DFC7
:10030000D0E480E02CDFD150E1F7CF5FC03CA1F713
:10031000DF91CF910895FC01242F6034D0F447FD84
:1003200018C0862F86958695869590E8899FE00D62
:10033000F11D1124962F977041E050E001C0440F49
:100340009A95EAF7E20FF11D9081492B4083622FC5
:10035000ABCF08954F925F926F927F928F929F9250
:10036000AF92BF92CF92DF92EF92FF920F931F93C3
:10037000CF93DF936C01942E401709F443C0C42F30
:10038000D0E0E62EF12C622E712CA02EB12C40175D
:10039000F0F423014E185F08812C912CC7018619B7
:1003A00097093C0185010C1B1D0B840C951CAC1698
:1003B000BD060CF452C0C301880D991DB8011CD3B1
:1003C0006E0D7F1D4C2FC601A6DF2196EECF2701B3
:1003D00046185708812C912C6E187F0885010C1B3C
:1003E0001D0B840C951CCA15DB05BCF1C301880DDF
:1003F000991DB80101D36E0D7F1D4C2FC6018BDFF7
:100400002197EFCF6217C1F0C62FD0E0022F10E086
:10041000621748F40C171D0704F1492D6C2FC60113
:100420007ADF2196F7CFC017D107BCF0492D6C2F8A
:10043000C60171DF2197F7CFDF91CF911F910F9107
:10044000FF90EF90DF90CF90BF90AF909F908F90F4
:100450007F906F905F904F905ECFDF91CF911F9113
:100460000F91FF90EF90DF90CF90BF90AF909F9053
:100470008F907F906F905F904F900895DF92EF92F2
:10048000FF920F931F93CF93DF93EC01162FD42E7F
:10049000E22EF02E262F5EDF2E2D4D2D6E2DCE015D
:1004A00059DF0D2D2E2D4D2D612FCE0153DF0F2D38
:1004B0002E2D4F2D612FCE014DDFDF91CF911F915A
:1004C0000F91FF90EF90DF900895FC011082118250
:1004D000128213820895CF9380913403C4E66C2F67
:1004E0007FD240E3480F60E081E048DE8091340332
:1004F0006C2F76D2892FCAE06C2F72D240E3480F5E
:1005000061E081E03BDE809134036C2F69D240E3EF
:10051000490F62E081E0CF9131CECF92DF92EF922E
:10052000FF9260913003709131038091320390917A
:100530003303673E23E072078105910549F44FEDCF
:1005400052E060E084E0FF90EF90DF90CF904DCEDE
:1005500024E6C22ED12CE12CF12CA70196015FD20A
:1005600040E3420F60E084E009DE60913003709167
:1005700031038091320390913303A70196014FD24A
:100580003AE0C32ED12CE12CF12CA701960147D2E1
:1005900040E3420F61E084E0F1DD6091300370914F
:1005A00031038091320390913303A701960137D232
:1005B00040E3460F62E084E0FF90EF90DF90CF9041
:1005C000DDCD0F9306E22FE346E260E087E393E0A0
:1005D000C1DE43EE52E060E080E007DE7CDF49EE02
:1005E00052E060E083E001DE98DF80913503811105
:1005F0001EC04FEE52E067E0F8DD49EF52E067E0E1
:1006000081E0F3DD43E053E067E082E0EEDD4EE0C1
:1006100053E067E083E0E9DD49E153E067E084E02F
:10062000E4DD44E253E067E085E00F91DECD0F9119
:100630000895EF92FF920F931F93CF93DF93182F9C
:10064000D92FC62F48DF69DFE12EFD2E10E41C0FE5
:10065000D6E1F70141917F01442379F04D9F002DB0
:100660001124095D41504D9F402D1124495D26E024
:100670002C0F6C2F87E393E001DFC05FC113E9CF3C
:10068000DF91CF911F910F91FF90EF900895CF933D
:10069000DF93CDB7DEB728970FB6F894DEBF0FBE55
:1006A000CDBF8FEF8ABB88BB87BB11BA82B91092CE
:1006B0006500809364008FE325DD88EB23DD80E413
:1006C00021DD8BE08DBD8CED8CBD1FBC81E08EBD2E
:1006D00096E690936A009ABF89BF789487E393E087
:1006E000F8DD88EEC82E83E0D82EE12CF12C97EEB1
:1006F000492E93E0592E612C712C80913503811184
:100700000FC084E087BF87E393E0F2DD5ADF80917A
:1007100035038111F2CF25E02A95F1F70000F7CFDC
:10072000813009F01CC18091360390E0F8D1CE01F0
:100730000196CBDE10E0809135038130F1F6111186
:100740002EC08B818C838A818B8389818A83E4D1BB
:1007500064E070E051D18F5F898380913003909184
:100760003103A0913203B09133030A96A11DB11D4C
:10077000883E43E09407A105B10548F48093300317
:1007800090933103A0933203B093330308C0409297
:10079000300350923103609232037092330387E347
:1007A00093E0A6DD0EDF612FCE01019642DF1C5FD4
:1007B0001F7093E0E1E0F0E0EC0FFD1FE90FF11D89
:1007C0008081882341F0813099F580E090E0DC0160
:1007D00020E01F010EC09150EDCF30B33B3FE9F058
:1007E000EFE1F3E03197F1F700C000000196A11DA1
:1007F000B11D8090300390903103A0903203B090EF
:100800003303B701A601481959096A097B098417FE
:100810009507A607B70708F38ECF211107C02091CF
:1008200034032B5F20933403F101108221E0D8CFF1
:10083000823081F580E090E0DC0120E01F018090B3
:10084000300390903103A0903203B0903303B7018E
:10085000A601481959096A097B0984179507A60753
:10086000B70708F068CF30B3373F51F4211107C004
:10087000209134032B5F20933403F101108221E097
:10088000EFE1F3E03197F1F700C000000196A11D00
:10089000B11DD5CF833081F580E090E0DC0120E010
:1008A0001F018090300390903103A0903203B090EC
:1008B0003303B701A601481959096A097B0984174E
:1008C0009507A607B70708F036CF30B33F3E51F47F
:1008D000211107C0209134032B5F20933403F101D1
:1008E000108221E0EFE1F3E03197F1F700C0000062
:1008F0000196A11DB11DD5CF843009F01CCF80E039
:1009000090E0DC0120E01F018090300390903103E3
:10091000A0903203B0903303B701A60148195909DA
:100920006A097B0984179507A607B70708F003CF64
:1009300030B33F3D51F4211107C0209134032B5FA8
:1009400020933403F101108221E0EFE1F3E03197CD
:10095000F1F700C000000196A11DB11DD5CF809117
:100960003503823009F0C9CE55E05A95F1F7000001
:10097000F6CF1F920F920FB60F9211248F93809192
:1009800036038F5F809336038F910F900FBE0F90C9
:100990001F9018951F920F920FB60F9211248F93EC
:1009A00080913503811103C081E08093350317BE28
:1009B0008F910F900FBE0F901F9018951F920F925E
:1009C0000FB60F9211248F9380913503823011F46A
:1009D000109235038F910F900FBE0F901F901895B6
:1009E000991B79E004C0991F961708F0961B881F81
:1009F0007A95C9F78095089597FB072E16F4009411
:100A000006D077FD08D02DD007FC05D03EF4909598
:100A100081959F4F0895709561957F4F0895A1E24C
:100A20001A2EAA1BBB1BFD010DC0AA1FBB1FEE1F68
:100A3000FF1FA217B307E407F50720F0A21BB30BB3
:100A4000E40BF50B661F771F881F991F1A9469F72F
:100A500060957095809590959B01AC01BD01CF018B
:100A60000895AA1BBB1B51E107C0AA1FBB1FA617F5
:100A7000B70710F0A61BB70B881F991F5A95A9F747
:100A800080959095BC01CD0108958F929F92AF9271
:100A9000BF92CF92DF92EF92FF92CF93DF93EC0160
:100AA000688179818A819B81611571058105910534
:100AB00021F464E279ED8BE597E02DE133EF41E03D
:100AC00050E038D049015A019B01AC01A7EAB1E4DA
:100AD0004DD06B017C01ACEEB4EFA501940152D076
:100AE000DC01CB018C0D9D1DAE1DBF1DB7FF03C0EA
:100AF0000197A109B04888839983AA83BB839F7714
:100B0000DF91CF91FF90EF90DF90CF90BF90AF90AB
:100B10009F908F900895B9CF80E091E0B6CFA0E08C
:100B2000B0E08093000190930101A0930201B09383
:100B300003010895052E97FB16F400940FD057FD7E
:100B400005D06DDF07FC02D046F408C050954095F3
:100B5000309521953F4F4F4F5F4F08959095809569
:100B6000709561957F4F8F4F9F4F08950FD0A59F30
:100B7000900DB49F900DA49F800D911D1124089598
:100B8000B7FFF4CFF3DF821B930B0895A29FB00150
:100B9000B39FC001A39F700D811D1124911DB29FB1
:0E0BA000700D811D1124911D0895F894FFCF52
:100BAE0001000000000000000000004F00000007E0
:100BBE00000700147F147F14242A7F2A122313089F
:100BCE00646236495522500005030000001C224184
:100BDE00000041221C0014083E081408083E0808B4
:100BEE00005030000008080808080060600000206F
:100BFE00100804023E5149453E00427F40004261CA
:100C0E005149462141454B311814127F1027454555
:100C1E0045393C4A4949300171090503364949496C
:100C2E0036064949291E00363600000056360000A9
:100C3E000814224100141414141400412214080242
:100C4E0001510906324979413E7E1111117E7F49CB
:100C5E004949363E414141227F4141221C7F49494B
:100C6E0049417F090909013E4149497A7F0808082F
:100C7E007F00417F41002040413F017F0814224107
:100C8E007F404040407F020C027F7F0408107F3E71
:100C9E004141413E7F090909063E4151215E7F09CE
:100CAE00192946264949493201017F01013F404039
:100CBE00403F1F2040201F3F4038403F6314081420
:100CCE006307087008076151494543007F414100A1
:100CDE0002040810200041417F000402010204407A
:100CEE0040404040000102040020545454787F4894
:100CFE004444383844444420384444487F3854549B
:100D0E005418087E0901020C5252523E7F08040408
:100D1E007800047D00002040443D007F10284400F0
:100D2E0000417F40007C0418047C7C080404783861
:100D3E00444444387C14141408081414187C7C0899
:100D4E000404084854545420043F4440203C40407E
:100D5E00207C1C2040201C3C4030403C4428102865
:100D6E00440C5050503C4464544C440008364100EE
:100D7E000000770000004136080008040810084DF6
:100D8E0041580053636F726500537065656400319E
:100D9E00202D2053544152540032202D20524553C1
:100DAE0045540033202D204C414E45203100342037
:100DBE002D204C414E4520320035202D204C414EE9
:100DCE004520330036202D204C414E452034000066
:00000001FF
