S012000052687974686D47616D652E737265631C
S113000045C000001FC3000031C300005CC00000F5
S11300105AC0000058C0000056C0000054C0000080
S113002052C0000050C000004EC000004CC0000090
S11300304AC0000048C00000F6C2000044C00000EE
S113004042C0000040C000003EC000003CC00000B0
S11300503AC0000038C0000036C0000034C00000C0
S113006032C0000030C000002EC000002CC00000D0
S11300702AC0000028C0000026C0000024C00000E0
S113008022C0000020C000001EC0000011241FBEBA
S1130090CFEFD0E1DEBFCDBF13E0A0E0B1E0EAEFE7
S11300A0F6E000E00BBF02C007900D92A832B10742
S11300B0D9F723E0A8E2B3E001C01D92AC32B20745
S11300C0E1F76CD218C39CCF1D9A95E39A95F1F78A
S11300D000001C981E981F9A8BBB85E38A95F1F744
S11300E000001D9808951D9A95E39A95F1F7000074
S11300F01C981E9A1F988BBB85E38A95F1F7000024
S11301001D9808951D9A95E39A95F1F700001C989F
S11301101E9A1F9A8BBB85E38A95F1F700001D9800
S113012008951D9A95E39A95F1F700001C9A1E987C
S11301301F9A8BBB85E38A95F1F700001D980895FB
S11301401D9A95E39A95F1F700001C9A1E9A1F9840
S11301508BBB85E38A95F1F700001D9808951D9ADD
S113016095E39A95F1F700001C9A1E9A1F9A8BBB8F
S113017085E38A95F1F700001D9808950F931F9366
S1130180CF93DF93162FC42F8854BCDF812F1A30EE
S113019030F4880F810F880F8C5B96DF08C090E0E5
S11301A00A97982F990F890F880F805C9CDF85E050
S11301B0C89FE0011124C05ADF4F05E088811A303E
S11301C010F4AFDF01C0BCDF015021960111F6CF5E
S11301D080E01A3028F4DF91CF911F910F91A1CFC5
S11301E0DF91CF911F910F91ABCFEF92FF920F93BD
S11301F01F93CF93DF93F62EEA01885483DF89E0BF
S11302008F1538F08F2D880F8F0D880F8C5B5CDF76
S113021009C08F2D90E00A97982F990F890F880FA6
S1130220805C61DF85E0E82E88818823B1F19AE063
S1130230F91202C080E457DF00E010E0888199E001
S11302409F1570F090E08097E89EF001E99EF00D14
S11302501124E050FF4FE00FF11F808162DF0DC0D9
S113026090E08097E89EF001E99EF00D1124E050A3
S1130270FF4FE00FF11F808163DF0F5F1F4F0530D9
S11302801105E1F689E08F1518F080E04ADF02C01D
S113029080E056DF2196F394C7CFDF91CF911F9171
S11302A00F91FF90EF900895CF93DF93C8EB8C2FBD
S11302B029DF80E427DFD0E480E051DFD150E1F78B
S11302C0CF5FC03CA1F7DF91CF910895CF93DF9327
S11302D0C62FD42F885416DFC03438F480E48C0F32
S11302E0F3DE8D2FDF91CF911CCF8C2FFCDE8D2F71
S11302F0DF91CF9125CFAC015C5F9C0120583F4F2B
S1130300FC011192CF01E217F307D1F74E175F07F3
S1130310A1F70895FC01242F6034D0F447FD18C0E0
S1130320862F86958695869590E8899FE00DF11D28
S11303301124962F977041E050E001C0440F9A9524
S1130340EAF7E20FF11D9081492B4083622FBECF63
S113035008954F925F926F927F928F929F92AF9285
S1130360BF92CF92DF92EF92FF920F931F93CF939E
S1130370DF936C01942E401709F443C0C42FD0E0DE
S1130380E62EF12C622E712CA02EB12C4017F0F425
S113039023014E185F08812C912CC70186199709F7
S11303A03C0185010C1B1D0B840C951CAC16BD0671
S11303B00CF452C0C301880D991DB80175D16E0D9E
S11303C07F1D4C2FC601A6DF2196EECF27014618CC
S11303D05708812C912C6E187F0885010C1B1D0B6E
S11303E0840C951CCA15DB05BCF1C301880D991D4D
S11303F0B8015AD16E0D7F1D4C2FC6018BDF21979A
S1130400EFCF6217C1F0C62FD0E0022F10E06217C1
S113041048F40C171D0704F1492D6C2FC6017ADF2F
S11304202196F7CFC017D107BCF0492D6C2FC60118
S113043071DF2197F7CFDF91CF911F910F91FF903B
S1130440EF90DF90CF90BF90AF909F908F907F9070
S11304506F905F904F905ECFDF91CF911F910F917E
S1130460FF90EF90DF90CF90BF90AF909F908F90D0
S11304707F906F905F904F9008950F931F93CF9349
S1130480DF93CDB7DEB7D4500FB6F894DEBF0FBEFE
S1130490CDBFCE0101962FDF06E22FE346E260E0F6
S11304A0CE01019656DF0FE72AE346E26AE3CE0166
S11304B001964FDF4BED52E060E080E096DE8091E4
S11304C0290304E6602FE4D040E3480F60E081E0B4
S11304D055DE80912903602FDBD0892F1AE0612F2C
S11304E0D7D040E3480F61E081E048DE80912903E2
S11304F0612FCED040E3490F62E081E03FDE41EE60
S113050052E060E083E071DE80912803602FC0D068
S113051040E3480F60E084E031DE80912803602FDF
S1130520B7D0892F612FB4D040E3480F61E084E055
S113053025DE80912803612FABD040E3490F62E0B0
S113054084E01CDE80912A0381111DC047EE52E035
S113055067E04BDE41EF52E067E081E046DE4BEFBF
S113056052E067E082E041DE46E053E067E083E08A
S11305703CDE41E153E067E084E037DE4CE153E0E8
S113058067E085E032DEDC5F0FB6F894DEBF0FBEB5
S1130590CDBFDF91CF911F910F9108958FEF8ABB4B
S11305A088BB87BB11BA82B910926500809364003E
S11305B08FE3A8DD88EBA6DD80E4A4DD8BE08DBDB0
S11305C08CED8CBD1FBC84E08EBD86E680936A00F2
S11305D08ABF83E089BF7894C4E080912A038111A3
S11305E00CC0C7BF61DE49DF80912A038111F5CFBA
S11305F085E08A95F1F70000F7CF813059F454DE95
S11306003CDF80912A03813041F785E08A95F1F738
S11306100000F7CF80912A038230F9F685E08A95AD
S1130620F1F70000F7CF1F920F920FB60F9211242B
S11306308F938CB580932B038F910F900FBE0F90E7
S11306401F9018951F920F920FB60F9211248F933B
S113065080912A03811103C081E080932A0317BE8D
S11306608F910F900FBE0F901F9018951F920F92AD
S11306700FB60F9211248F9380912A03823011F4C4
S113068010922A038F910F900FBE0F901F90189510
S1130690991B79E004C0991F961708F0961B881FD0
S11306A07A95C9F78095089597FB072E16F4009460
S11306B006D077FD08D00BD007FC05D03EF490950A
S11306C081959F4F0895709561957F4F0895AA1B5A
S11306D0BB1B51E107C0AA1FBB1FA617B70710F029
S11306E0A61BB70B881F991F5A95A9F7809590955B
S10D06F0BC01CD010895F894FFCF7A
S11306FA000000000000004F00000007000700147B
S113070A7F147F14242A7F2A122313086462364929
S113071A5522500005030000001C2241000041221A
S113072A1C0014083E081408083E0808005030004B
S113073A0008080808080060600000201008040285
S113074A3E5149453E00427F40004261514946219B
S113075A41454B311814127F1027454545393C4A07
S113076A4949300171090503364949493606494957
S113077A291E0036360000005636000008142241AD
S113078A0014141414140041221408020151090615
S113079A324979413E7E1111117E7F494949363EDB
S11307AA414141227F4141221C7F494949417F09F4
S11307BA0909013E4149497A7F0808087F00417FB7
S11307CA41002040413F017F081422417F404040BC
S11307DA407F020C027F7F0408107F3E4141413E64
S11307EA7F090909063E4151215E7F0919294626D6
S11307FA4949493201017F01013F4040403F1F20DE
S113080A40201F3F4038403F6314081463070870B0
S113081A08076151494543007F4141000204081019
S113082A200041417F00040201020440404040404C
S113083A000102040020545454787F484444383850
S113084A44444420384444487F3854545418087E55
S113085A0901020C5252523E7F0804047800047DB6
S113086A00002040443D007F1028440000417F409E
S113087A007C0418047C7C08040478384444443812
S113088A7C14141408081414187C7C0804040848FA
S113089A54545420043F4440203C4040207C1C20B3
S11308AA40201C3C4030403C44281028440C505002
S11308BA503C4464544C440008364100000077001C
S11308CA000041360800080408100853636F726573
S11308DA0053706565640031202D205354415254ED
S11308EA0032202D2052455345540033202D204CEC
S11308FA414E4520310034202D204C414E452032B2
S113090A0035202D204C414E4520330036202D2021
S10B091A4C414E45203400005D
S9030000FC
