:1000000045C0000060C000005EC000005CC0000091
:100010005AC0000058C0000056C0000054C0000084
:1000200052C0000050C000004EC000004CC0000094
:100030004AC0000048C000003FC2000044C00000A9
:1000400042C0000040C000003EC000003CC00000B4
:100050003AC0000038C0000036C0000034C00000C4
:1000600032C0000030C000002EC000002CC00000D4
:100070002AC0000028C0000026C0000024C00000E4
:1000800022C0000020C000001EC0000011241FBEBE
:10009000CFEFD0E1DEBFCDBF12E0A0E0B1E0E6E3FC
:1000A000F5E000E00BBF02C007900D92AC3EB10737
:1000B000D9F722E0ACEEB2E001C01D92AD3EB2072E
:1000C000E1F7DED136C29CCF1D9A95E39A95F1F700
:1000D00000001C981E981F9A8BBB85E38A95F1F748
:1000E00000001D9808951D9A95E39A95F1F7000078
:1000F0001C981E9A1F988BBB85E38A95F1F7000028
:100100001D9808951D9A95E39A95F1F700001C98A3
:100110001E9A1F9A8BBB85E38A95F1F700001D9804
:1001200008951D9A95E39A95F1F700001C9A1E9880
:100130001F9A8BBB85E38A95F1F700001D980895FF
:100140001D9A95E39A95F1F700001C9A1E9A1F9844
:100150008BBB85E38A95F1F700001D9808951D9AE1
:1001600095E39A95F1F700001C9A1E9A1F9A8BBB93
:1001700085E38A95F1F700001D980895EF92FF92AC
:100180000F931F93CF93DF93F62EEA018854BADFC3
:1001900089E08F1538F08F2D880F8F0D880F8C5BBD
:1001A00093DF09C08F2D90E00A97982F990F890F40
:1001B000880F805C98DF85E0E82E88818823B1F184
:1001C0009AE0F91202C080E48EDF00E010E088813E
:1001D00099E09F1570F090E08097E89EF001E99E0D
:1001E000F00D1124E050FF4FE00FF11F808199DFE7
:1001F0000DC090E08097E89EF001E99EF00D11247B
:10020000E050FF4FE00FF11F80819ADF0F5F1F4F1B
:1002100005301105E1F689E08F1518F080E081DFE7
:1002200002C080E08DDF2196F394C7CFDF91CF919C
:100230001F910F91FF90EF900895CF93DF93C8EB3C
:100240008C2F60DF80E45EDFD0E480E088DFD15077
:10025000E1F7CF5FC03CA1F7DF91CF910895CF9335
:10026000DF93C62FD42F88544DDFC03438F480E498
:100270008C0F2ADF8D2FDF91CF9153CF8C2F33DF5F
:100280008D2FDF91CF915CCFAC015C5F9C0120583A
:100290003F4FFC011192CF01E217F307D1F74E1740
:1002A0005F07A1F70895FC01242F6034D0F447FDC7
:1002B00018C0862F86958695869590E8899FE00DD3
:1002C000F11D1124962F977041E050E001C0440FBA
:1002D0009A95EAF7E20FF11D9081492B4083622F36
:1002E000BECF08954F925F926F927F928F929F92AE
:1002F000AF92BF92CF92DF92EF92FF920F931F9334
:10030000CF93DF936C01942E401709F443C0C42FA0
:10031000D0E0E62EF12C622E712CA02EB12C4017CD
:10032000F0F423014E185F08812C912CC701861927
:1003300097093C0185010C1B1D0B840C951CAC1608
:10034000BD060CF452C0C301880D991DB801CAD076
:100350006E0D7F1D4C2FC601A6DF2196EECF270123
:1003600046185708812C912C6E187F0885010C1BAC
:100370001D0B840C951CCA15DB05BCF1C301880D4F
:10038000991DB801AFD06E0D7F1D4C2FC6018BDFBC
:100390002197EFCF6217C1F0C62FD0E0022F10E0F7
:1003A000621748F40C171D0704F1492D6C2FC60184
:1003B0007ADF2196F7CFC017D107BCF0492D6C2FFB
:1003C000C60171DF2197F7CFDF91CF911F910F9178
:1003D000FF90EF90DF90CF90BF90AF909F908F9065
:1003E0007F906F905F904F905ECFDF91CF911F9184
:1003F0000F91FF90EF90DF90CF90BF90AF909F90C4
:100400008F907F906F905F904F9008950F93CF9350
:10041000DF93CDB7DEB7D4500FB6F894DEBF0FBE72
:10042000CDBFCE01019630DF06E22FE346E260E069
:10043000CE01019657DF0FE72AE346E26AE3CE01D9
:10044000019650DF4BED52E060E080E097DE41EE38
:1004500052E060E081E092DE45EE52E060E083E051
:100460008DDE41EE52E060E084E088DEDC5F0FB6B6
:10047000F894DEBF0FBECDBFDF91CF910F910895ED
:100480008FEF8ABB88BB87BB11BA82B91092650017
:10049000809364008FE336DE88EB34DE80E432DE66
:1004A000CCDEB4DF8BE08DBD8CED8CBD1FBC84E059
:1004B0008EBD87BF7894FFCF1F920F920FB60F9219
:1004C00011248F938091EC028F5F8A3019F0809312
:1004D000EC0202C01092EC028F910F900FBE0F90B1
:1004E0001F90189597FB072E16F4009406D077FD01
:1004F00008D00BD007FC05D03EF4909581959F4F16
:100500000895709561957F4F0895AA1BBB1B51E11B
:1005100007C0AA1FBB1FA617B70710F0A61BB70B73
:10052000881F991F5A95A9F780959095BC01CD0118
:060530000895F894FFCFCE
:10053600000000000000004F000000070007001444
:100546007F147F14242A7F2A1223130864623649F3
:100556005522500005030000001C224100004122E4
:100566001C0014083E081408083E08080050300015
:10057600000808080808006060000020100804024F
:100586003E5149453E00427F400042615149462165
:1005960041454B311814127F1027454545393C4AD1
:1005A6004949300171090503364949493606494921
:1005B600291E003636000000563600000814224177
:1005C60000141414141400412214080201510906DF
:1005D600324979413E7E1111117E7F494949363EA5
:1005E600414141227F4141221C7F494949417F09BE
:1005F6000909013E4149497A7F0808087F00417F81
:1006060041002040413F017F081422417F40404085
:10061600407F020C027F7F0408107F3E4141413E2D
:100626007F090909063E4151215E7F09192946269F
:100636004949493201017F01013F4040403F1F20A7
:1006460040201F3F4038403F63140814630708707A
:1006560008076151494543007F41410002040810E3
:10066600200041417F000402010204404040404016
:10067600000102040020545454787F48444438381A
:1006860044444420384444487F3854545418087E1F
:100696000901020C5252523E7F0804047800047D80
:1006A60000002040443D007F1028440000417F4068
:1006B600007C0418047C7C080404783844444438DC
:1006C6007C14141408081414187C7C0804040848C4
:1006D60054545420043F4440203C4040207C1C207D
:1006E60040201C3C4030403C44281028440C5050CC
:1006F600503C4464544C44000836410000007700E6
:10070600000041360800080408100853636F72653C
:0C07160000303030005370656564000056
:00000001FF
