:1000000045C000008CC300009EC300005CC000001F
:100010005AC0000058C0000056C0000054C0000084
:1000200052C0000050C000004EC000004CC0000094
:100030004AC0000048C0000061C3000044C0000086
:1000400042C0000040C000003EC000003CC00000B4
:100050003AC0000038C0000036C0000034C00000C4
:1000600032C0000030C000002EC000002CC00000D4
:100070002AC0000028C0000026C0000024C00000E4
:1000800022C0000020C000001EC0000011241FBEBE
:10009000CFEFD0E1DEBFCDBF13E0A0E0B1E0E8E3F9
:1000A000F9E000E00BBF02C007900D92AC32B1073F
:1000B000D9F727E0ACE2B3E001C01D92A033B2074C
:1000C000E1F7B0D237C49CCF1D9A95E39A95F1F72A
:1000D00000001C981E981F9A8BBB85E38A95F1F748
:1000E00000001D9808951D9A95E39A95F1F7000078
:1000F0001C981E9A1F988BBB85E38A95F1F7000028
:100100001D9808951D9A95E39A95F1F700001C98A3
:100110001E9A1F9A8BBB85E38A95F1F700001D9804
:1001200008951D9A95E39A95F1F700001C9A1E9880
:100130001F9A8BBB85E38A95F1F700001D980895FF
:100140001D9A95E39A95F1F700001C9A1E9A1F9844
:100150008BBB85E38A95F1F700001D9808951D9AE1
:1001600095E39A95F1F700001C9A1E9A1F9A8BBB93
:1001700085E38A95F1F700001D9808950F931F936A
:10018000CF93DF93162FC42F8854BCDF812F1A30F2
:1001900030F4880F810F880F8C5B96DF08C090E0E9
:1001A0000A97982F990F890F880F805C9CDF85E054
:1001B000C89FE0011124CC59DF4F05E088811A3037
:1001C00010F4AFDF01C0BCDF015021960111F6CF62
:1001D00080E01A3028F4DF91CF911F910F91A1CFC9
:1001E000DF91CF911F910F91ABCFEF92FF920F93C1
:1001F0001F93CF93DF93F62EEA01885483DF89E0C3
:100200008F1538F08F2D880F8F0D880F8C5B5CDF7A
:1002100009C08F2D90E00A97982F990F890F880FAA
:10022000805C61DF85E0E82E88818823B1F19AE067
:10023000F91202C080E457DF00E010E0888199E005
:100240009F1570F090E08097E89EF001E99EF00D18
:100250001124EC5FFE4FE00FF11F808162DF0DC0C3
:1002600090E08097E89EF001E99EF00D1124EC5F8C
:10027000FE4FE00FF11F808163DF0F5F1F4F0530DE
:100280001105E1F689E08F1518F080E04ADF02C021
:1002900080E056DF2196F394C7CFDF91CF911F9175
:1002A0000F91FF90EF900895CF93DF93C8EB8C2FC1
:1002B00029DF80E427DFD0E480E051DFD150E1F78F
:1002C000CF5FC03CA1F7DF91CF910895CF93DF932B
:1002D000C62FD42F885416DFC03438F480E48C0F36
:1002E000F3DE8D2FDF91CF911CCF8C2FFCDE8D2F75
:1002F000DF91CF9125CFAC015C5F9C0120583F4F2F
:10030000FC011192CF01E217F307D1F74E175F07F7
:10031000A1F70895FC01242F6034D0F447FD18C0E4
:10032000862F86958695869590E8899FE00DF11D2C
:100330001124962F977041E050E001C0440F9A9528
:10034000EAF7E20FF11D9081492B4083622FBECF67
:1003500008954F925F926F927F928F929F92AF9289
:10036000BF92CF92DF92EF92FF920F931F93CF93A2
:10037000DF936C01942E401709F443C0C42FD0E0E2
:10038000E62EF12C622E712CA02EB12C4017F0F429
:1003900023014E185F08812C912CC70186199709FB
:1003A0003C0185010C1B1D0B840C951CAC16BD0675
:1003B0000CF452C0C301880D991DB801E2D16E0D35
:1003C0007F1D4C2FC601A6DF2196EECF27014618D0
:1003D0005708812C912C6E187F0885010C1B1D0B72
:1003E000840C951CCA15DB05BCF1C301880D991D51
:1003F000B801C7D16E0D7F1D4C2FC6018BDF219731
:10040000EFCF6217C1F0C62FD0E0022F10E06217C5
:1004100048F40C171D0704F1492D6C2FC6017ADF33
:100420002196F7CFC017D107BCF0492D6C2FC6011C
:1004300071DF2197F7CFDF91CF911F910F91FF903F
:10044000EF90DF90CF90BF90AF909F908F907F9074
:100450006F905F904F905ECFDF91CF911F910F9182
:10046000FF90EF90DF90CF90BF90AF909F908F90D4
:100470007F906F905F904F900895DF92EF92FF9280
:100480000F931F93CF93DF937C01C62F142FD22F8E
:10049000D02EDC1740F00D2D2C2F412F6C2FC701D3
:1004A00058DFCF5FF6CFDF91CF911F910F91FF9073
:1004B000EF90DF900895FC01108211821282138266
:1004C0000895CF9380912D03C4E66C2F4ED140E365
:1004D000480F60E081E052DE80912D036C2F45D102
:1004E000892FCAE06C2F41D140E3480F61E081E0E1
:1004F00045DE80912D036C2F38D140E3490F62E037
:1005000081E0CF913BCECF9380912C03C4E66C2F3A
:100510002CD140E3480F60E084E030DE80912C0372
:100520006C2F23D1892FCAE06C2F1FD140E3480FD5
:1005300061E084E023DE80912C036C2F16D140E330
:10054000490F62E084E0CF9119CE0F9306E22FE3CA
:1005500046E260E080E393E0FCDE0FE72AE347E257
:100560006AE380E393E0F5DE4FED52E060E080E087
:100570003CDEA7DF45EE52E060E083E036DEC3DF1D
:1005800080912E0381111EC04BEE52E067E02DDEFC
:1005900045EF52E067E081E028DE4FEF52E067E090
:1005A00082E023DE4AE053E067E083E01EDE45E1BF
:1005B00053E067E084E019DE40E253E067E085E065
:1005C0000F9113CE0F910895EF92FF920F931F9307
:1005D000CF93DF93182FD92FC62F73DF94DFE12E2F
:1005E000FD2E10E41C0FD6E1F70141917F01442359
:1005F00079F04D9F002D1124095D41504D9F402DF4
:100600001124495D24E02C0F6C2F80E393E035DF4B
:10061000C05FC113E9CFDF91CF911F910F91FF9080
:10062000EF900895CF93DF9300D000D0CDB7DEB721
:100630008FEF8ABB88BB87BB11BA82B91092650065
:10064000809364008FE35EDD88EB5CDD80E45ADD3F
:100650008BE08DBD8CED8CBD1FBC81E08EBD86E630
:1006600080936A008ABF83E089BF789480E393E037
:1006700042DE84E0E82EF12C04E080912E0381110B
:100680000CC007BF11DE61DF80912E038111F5CF11
:1006900085E08A95F1F70000F7CF813029F5809148
:1006A0002F0390E0DFD0CE01019605DF10E08091AE
:1006B0002E03813011F711110BC08B818C838A813D
:1006C0008B8389818A83CBD0B7015BD08F5F89838D
:1006D000612FCE01019678DF80912C038F5F80938C
:1006E0002C031F5F1F70E3CF80912E03823009F02F
:1006F000C4CF85E08A95F1F70000F6CF1F920F92E4
:100700000FB60F9211248F9380912F038F5F8093E8
:100710002F038F910F900FBE0F901F9018951F926F
:100720000F920FB60F9211248F9380912E03811197
:1007300003C081E080932E0317BE8F910F900FBEF0
:100740000F901F9018951F920F920FB60F921124C1
:100750008F9380912E03823011F410922E038F918B
:100760000F900FBE0F901F901895991B79E004C051
:10077000991F961708F0961B881F7A95C9F78095E0
:10078000089597FB072E16F4009406D077FD08D045
:100790000BD007FC05D03EF4909581959F4F0895AE
:1007A000709561957F4F0895AA1BBB1B51E107C04F
:1007B000AA1FBB1FA617B70710F0A61BB70B881FF1
:1007C000991F5A95A9F780959095BC01CD01089580
:1007D0008F929F92AF92BF92CF92DF92EF92FF9251
:1007E000CF93DF93EC01688179818A819B816115C8
:1007F00071058105910521F464E279ED8BE597E0BF
:100800002DE133EF41E050E038D049015A019B011E
:10081000AC01A7EAB1E44DD06B017C01ACEEB4EFC2
:10082000A501940152D0DC01CB018C0D9D1DAE1DA4
:10083000BF1DB7FF03C00197A109B0488883998302
:10084000AA83BB839F77DF91CF91FF90EF90DF90DA
:10085000CF90BF90AF909F908F900895B9CF80E0D8
:1008600091E0B6CFA0E0B0E0809300019093010149
:10087000A0930201B09303010895052E97FB16F48F
:1008800000940FD057FD05D024D007FC02D046F4C9
:1008900008C050954095309521953F4F4F4F5F4F81
:1008A000089590958095709561957F4F8F4F9F4FDC
:1008B000089531D0A59F900DB49F900DA49F800DF9
:1008C000911D11240895B7FFF4CFF3DF821B930B22
:1008D0000895A1E21A2EAA1BBB1BFD010DC0AA1F81
:1008E000BB1FEE1FFF1FA217B307E407F50720F099
:1008F000A21BB30BE40BF50B661F771F881F991F14
:100900001A9469F760957095809590959B01AC015C
:10091000BD01CF010895A29FB001B39FC001A39F65
:10092000700D811D1124911DB29F700D811D112428
:08093000911D0895F894FFCF1A
:1009380001000000000000000000004F0000000758
:10094800000700147F147F14242A7F2A1223130817
:10095800646236495522500005030000001C2241FC
:10096800000041221C0014083E081408083E08082C
:1009780000503000000808080808006060000020E7
:10098800100804023E5149453E00427F4000426142
:100998005149462141454B311814127F10274545CE
:1009A80045393C4A494930017109050336494949E5
:1009B80036064949291E0036360000005636000022
:1009C80008142241001414141414004122140802BB
:1009D80001510906324979413E7E1111117E7F4944
:1009E8004949363E414141227F4141221C7F4949C4
:1009F80049417F090909013E4149497A7F080808A8
:100A08007F00417F41002040413F017F081422417F
:100A18007F404040407F020C027F7F0408107F3EE9
:100A28004141413E7F090909063E4151215E7F0946
:100A3800192946264949493201017F01013F4040B1
:100A4800403F1F2040201F3F4038403F6314081498
:100A58006307087008076151494543007F41410019
:100A680002040810200041417F00040201020440F2
:100A780040404040000102040020545454787F480C
:100A88004444383844444420384444487F38545413
:100A98005418087E0901020C5252523E7F08040481
:100AA8007800047D00002040443D007F1028440069
:100AB80000417F40007C0418047C7C0804047838DA
:100AC800444444387C14141408081414187C7C0812
:100AD8000404084854545420043F4440203C4040F7
:100AE800207C1C2040201C3C4030403C44281028DE
:100AF800440C5050503C4464544C44000836410067
:100B08000000770000004136080008040810085368
:100B1800636F72650053706565640031202D205342
:100B2800544152540032202D20524553455400332D
:100B3800202D204C414E4520310034202D204C41A1
:100B48004E4520320035202D204C414E45203300A3
:0C0B580036202D204C414E45203400007A
:00000001FF
