S012000052687974686D47616D652E737265631C
S113000045C00000A7C50000B9C500005CC00000E1
S11300105AC0000058C0000056C0000054C0000080
S113002052C0000050C000004EC000004CC0000090
S11300304AC0000048C000007CC5000044C0000065
S113004042C0000040C000003EC000003CC00000B0
S11300503AC0000038C0000036C0000034C00000C0
S113006032C0000030C000002EC000002CC00000D0
S11300702AC0000028C0000026C0000024C00000E0
S113008022C0000020C000001EC0000011241FBEBA
S1130090CFEFD0E1DEBFCDBF13E0A0E0B1E0E6E7F3
S11300A0FDE000E00BBF02C007900D92A433B1073E
S11300B0D9F727E0A4E3B3E001C01D92A234B2074C
S11300C0E1F753D356C69CCF1D9A95E39A95F1F761
S11300D000001C981E981F9A8BBB85E38A95F1F744
S11300E000001D9808951D9A95E39A95F1F7000074
S11300F01C981E9A1F988BBB85E38A95F1F7000024
S11301001D9808951D9A95E39A95F1F700001C989F
S11301101E9A1F9A8BBB85E38A95F1F700001D9800
S113012008951D9A95E39A95F1F700001C9A1E987C
S11301301F9A8BBB85E38A95F1F700001D980895FB
S11301401D9A95E39A95F1F700001C9A1E9A1F9840
S11301508BBB85E38A95F1F700001D9808951D9ADD
S113016095E39A95F1F700001C9A1E9A1F9A8BBB8F
S113017085E38A95F1F700001D9808950F931F9366
S1130180CF93DF93162FC42F8854BCDF812F1A30EE
S113019030F4880F810F880F8C5B96DF08C090E0E5
S11301A00A97982F990F890F880F805C9CDF85E050
S11301B0C89FE0011124CC59DF4F05E088811A3033
S11301C010F4AFDF01C0BCDF015021960111F6CF5E
S11301D080E01A3028F4DF91CF911F910F91A1CFC5
S11301E0DF91CF911F910F91ABCFEF92FF920F93BD
S11301F01F93CF93DF93F62EEA01885483DF89E0BF
S11302008F1538F08F2D880F8F0D880F8C5B5CDF76
S113021009C08F2D90E00A97982F990F890F880FA6
S1130220805C61DF85E0E82E88818823B1F19AE063
S1130230F91202C080E457DF00E010E0888199E001
S11302409F1570F090E08097E89EF001E99EF00D14
S11302501124EC5FFE4FE00FF11F808162DF0DC0BF
S113026090E08097E89EF001E99EF00D1124EC5F88
S1130270FE4FE00FF11F808163DF0F5F1F4F0530DA
S11302801105E1F689E08F1518F080E04ADF02C01D
S113029080E056DF2196F394C7CFDF91CF911F9171
S11302A00F91FF90EF900895CF93DF93C62FD42F33
S11302B0885428DFC03438F480E48C0F05DF8D2F98
S11302C0DF91CF912ECF8C2F0EDF8D2FDF91CF9129
S11302D037CFAC015C5F9C0120583F4FFC01119269
S11302E0CF01E217F307D1F74E175F07A1F708957F
S11302F0CF93DF93EEDFC8EB8C2F04DF80E402DFC3
S1130300D0E480E02CDFD150E1F7CF5FC03CA1F70F
S1130310DF91CF910895FC01242F6034D0F447FD80
S113032018C0862F86958695869590E8899FE00D5E
S1130330F11D1124962F977041E050E001C0440F45
S11303409A95EAF7E20FF11D9081492B4083622FC1
S1130350ABCF08954F925F926F927F928F929F924C
S1130360AF92BF92CF92DF92EF92FF920F931F93BF
S1130370CF93DF936C01942E401709F443C0C42F2C
S1130380D0E0E62EF12C622E712CA02EB12C401759
S1130390F0F423014E185F08812C912CC7018619B3
S11303A097093C0185010C1B1D0B840C951CAC1694
S11303B0BD060CF452C0C301880D991DB80100D4C8
S11303C06E0D7F1D4C2FC601A6DF2196EECF2701AF
S11303D046185708812C912C6E187F0885010C1B38
S11303E01D0B840C951CCA15DB05BCF1C301880DDB
S11303F0991DB801E5D36E0D7F1D4C2FC6018BDF0F
S11304002197EFCF6217C1F0C62FD0E0022F10E082
S1130410621748F40C171D0704F1492D6C2FC6010F
S11304207ADF2196F7CFC017D107BCF0492D6C2F86
S1130430C60171DF2197F7CFDF91CF911F910F9103
S1130440FF90EF90DF90CF90BF90AF909F908F90F0
S11304507F906F905F904F905ECFDF91CF911F910F
S11304600F91FF90EF90DF90CF90BF90AF909F904F
S11304708F907F906F905F904F900895DF92EF92EE
S1130480FF920F931F93CF93DF93EC01162FD42E7B
S1130490E22EF02E262F5EDF2E2D4D2D6E2DCE0159
S11304A059DF0D2D2E2D4D2D612FCE0153DF0F2D34
S11304B02E2D4F2D612FCE014DDFDF91CF911F9156
S11304C00F91FF90EF90DF900895FC01108211824C
S11304D0128213820895CF92DF92EF92FF9260917D
S11304E03C0370913D0380913E0390913F0324E6C9
S11304F0C22ED12CE12CF12CA701960174D340E338
S1130500420F60E081E03ADE60913C0370913D036C
S113051080913E0390913F03A701960164D33AE092
S1130520C32ED12CE12CF12CA70196015CD340E31E
S1130530420F61E081E022DE60913C0370913D0353
S113054080913E0390913F03A70196014CD340E371
S1130550460F62E081E0FF90EF90DF90CF900ECEE7
S1130560CF92DF92EF92FF9260913803709139033A
S113057080913A0390913B03673E23E07207810523
S1130580910549F44FED52E060E084E0FF90EF9074
S1130590DF90CF902ACE24E6C22ED12CE12CF12C70
S11305A0A701960120D340E3420F60E084E0E6DD3A
S11305B0609138037091390380913A0390913B0321
S11305C0A701960110D33AE0C32ED12CE12CF12CD3
S11305D0A701960108D340E3420F61E084E0CEDD39
S11305E0609138037091390380913A0390913B03F1
S11305F0A7019601F8D240E3460F62E084E0FF9041
S1130600EF90DF90CF90BACDCF92DF92EF92FF922E
S113061060913403709135038091360390913703D0
S113062024E6C22ED12CE12CF12CA7019601DBD2B9
S113063040E3420F60E087E0A1DD609134037091F4
S113064035038091360390913703A7019601CBD2ED
S11306503AE0C32ED12CE12CF12CA7019601C3D290
S113066040E3420F61E087E089DD609134037091DB
S113067035038091360390913703A7019601B3D2D5
S113068040E3460F62E087E0FF90EF90DF90CF9069
S113069075CD0F9306E22FE346E260E082E493E037
S11306A059DE43EE52E060E080E09FDD14DF49EE66
S11306B052E060E083E099DD53DF4FEE52E060E00A
S11306C086E093DDA1DF8091400381111EC043EFDA
S11306D052E067E08ADD4DEF52E067E081E085DDBE
S11306E047E053E067E082E080DD42E153E067E009
S11306F083E07BDD4DE153E067E084E076DD48E2B2
S113070053E067E085E00F9170CD0F910895EF926B
S1130710FF920F931F93CF93DF93182FD92FC62FD8
S1130720DADE1EDFE12EFD2E10E41C0FD6E1F70108
S113073041917F01442379F04D9F002D1124095DDF
S113074041504D9F402D1124495D26E02C0F6C2F04
S113075082E493E093DEC05FC113E9CFDF91CF91D0
S11307601F910F91FF90EF900895CF93DF93CDB732
S1130770DEB728970FB6F894DEBF0FBECDBF8FEF5C
S11307808ABB88BB87BB11BA82B91092650080937B
S113079064008FE3B7DC88EBB5DC80E4B3DC8BE08A
S11307A08DBD8CED8CBD1FBC81E08EBD86E6809333
S11307B06A008ABF83E089BF789482E493E089DD8C
S11307C004E098EE892E93E0992EA12CB12C27EE0B
S11307D0422E23E0522E612C712C80914003811112
S11307E00EC007BF82E493E083DD53DF80914003B2
S11307F08111F3CF25E02A95F1F70000F7CF81307E
S113080009F08DC18091410390E06DD2CE01019633
S11308105CDE10E082E0382E809140038130E9F6FE
S1130820111150C08C818823F9F080913C03909180
S11308303D03A0913E03B0913F0340913403509196
S113084035036091360370913703481759076A07D7
S11308507B0740F48093340390933503A0933603CD
S1130860B0933703309240038B818C838A818B83CE
S113087089818A8335D264E070E0A2D18F5F898355
S11308808091380390913903A0913A03B0913B03CE
S11308900A96A11DB11D883E23E09207A105B1056A
S11308A048F48093380390933903A0933A03B093A8
S11308B03B0308C0409238035092390360923A03D4
S11308C070923B0382E493E013DDE3DE612FCE01FB
S11308D001961DDF1C5F1F70FE01359684E0929126
S11308E08150992371F0913009F047C040E050E005
S11308F0BA0120E0E1E0F0E0EC0FFD1FE80FF11D8C
S113090010C08111ECCF88CF80B38B3FF1F08FE121
S113091093E00197F1F700C000004F5F5F4F6F4F06
S11309207F4FC0903803D0903903E0903A03F090A1
S11309303B03D501C4018C199D09AE09BF094817B1
S113094059076A077B0700F367CF211114C0809110
S11309503C0390913D03A0913E03B0913F03059663
S1130960A11DB11D80933C0390933D03A0933E03CE
S1130970B0933F03108221E0CACF923009F043C004
S113098040E050E0BA0120E0E1E0F0E0EC0FFD1FB0
S1130990E80FF11DC0903803D0903903E0903A037A
S11309A0F0903B03D501C4018C199D09AE09BF0920
S11309B0481759076A077B0708F02ECF80B3873F93
S11309C0B9F4211114C080913C0390913D03A0918E
S11309D03E03B0913F030596A11DB11D80933C03D6
S11309E090933D03A0933E03B0933F03108221E014
S11309F0AFE1B3E01197F1F700C000004F5F5F4F24
S1130A006F4F7F4FC7CF933009F043C040E050E0B1
S1130A10BA0120E0E1E0F0E0EC0FFD1FE80FF11D6A
S1130A20C0903803D0903903E0903A03F0903B0330
S1130A30D501C4018C199D09AE09BF09481759078E
S1130A406A077B0708F0E8CE80B38F3EB9F4211122
S1130A5014C080913C0390913D03A0913E03B0915A
S1130A603F030596A11DB11D80933C0390933D0364
S1130A70A0933E03B0933F03108221E0AFE1B3E0C3
S1130A801197F1F700C000004F5F5F4F6F4F7F4F2A
S1130A90C7CF943009F0C0CE40E050E0BA0120E066
S1130AA0E1E0F0E0EC0FFD1FE80FF11DC09038030A
S1130AB0D0903903E0903A03F0903B03D501C40190
S1130AC08C199D09AE09BF09481759076A077B07A6
S1130AD008F0A2CE80B38F3DB9F4211114C08091E7
S1130AE03C0390913D03A0913E03B0913F030596D2
S1130AF0A11DB11D80933C0390933D03A0933E033D
S1130B00B0933F03108221E0AFE1B3E01197F1F716
S1130B1000C000004F5F5F4F6F4F7F4FC7CF809182
S1130B204003823009F059CE95E09A95F1F7000020
S1130B30F6CF1F920F920FB60F9211248F938091CC
S1130B4041038F5F809341038F910F900FBE0F90ED
S1130B501F9018951F920F920FB60F9211248F9326
S1130B6080914003811103C081E08093400317BE4C
S1130B708F910F900FBE0F901F9018951F920F9298
S1130B800FB60F9211248F9380914003823091F419
S1130B901092400310923C0310923D0310923E03C6
S1130BA010923F03109238031092390310923A03C3
S1130BB010923B038F910F900FBE0F901F901895CA
S1130BC097FB072E16F4009406D077FD08D02DD09D
S1130BD007FC05D03EF4909581959F4F089570953C
S1130BE061957F4F0895A1E21A2EAA1BBB1BFD013C
S1130BF00DC0AA1FBB1FEE1FFF1FA217B307E407F8
S1130C00F50720F0A21BB30BE40BF50B661F771F4F
S1130C10881F991F1A9469F760957095809590952F
S1130C209B01AC01BD01CF010895AA1BBB1B51E17F
S1130C3007C0AA1FBB1FA617B70710F0A61BB70B48
S1130C40881F991F5A95A9F780959095BC01CD01ED
S1130C5008958F929F92AF92BF92CF92DF92EF92BC
S1130C60FF92CF93DF93EC01688179818A819B8124
S1130C70611571058105910521F464E279ED8BE537
S1130C8097E02DE133EF41E050E038D049015A01BB
S1130C909B01AC01A7EAB1E44DD06B017C01ACEE41
S1130CA0B4EFA501940152D0DC01CB018C0D9D1D44
S1130CB0AE1DBF1DB7FF03C00197A109B0488883CB
S1130CC09983AA83BB839F77DF91CF91FF90EF90A5
S1130CD0DF90CF90BF90AF909F908F900895B9CF41
S1130CE080E091E0B6CFA0E0B0E080930001909363
S1130CF00101A0930201B09303010895052E97FB0F
S1130D0016F400940FD057FD05D06DDF07FC02D018
S1130D1046F408C050954095309521953F4F4F4F6C
S1130D205F4F089590958095709561957F4F8F4F93
S1130D309F4F08950FD0A59F900DB49F900DA49F31
S1130D40800D911D11240895B7FFF4CFF3DF821BAA
S1130D50930B0895A29FB001B39FC001A39F700D90
S1130D60811D1124911DB29F700D811D1124911DAF
S1090D700895F894FFCF82
S1130D7601000000000000000000004F0000000712
S1130D86000700147F147F14242A7F2A12231308D1
S1130D96646236495522500005030000001C2241B6
S1130DA6000041221C0014083E081408083E0808E6
S1130DB600503000000808080808006060000020A1
S1130DC6100804023E5149453E00427F40004261FC
S1130DD65149462141454B311814127F1027454588
S1130DE645393C4A4949300171090503364949499F
S1130DF636064949291E00363600000056360000DC
S1130E060814224100141414141400412214080274
S1130E1601510906324979413E7E1111117E7F49FD
S1130E264949363E414141227F4141221C7F49497D
S1130E3649417F090909013E4149497A7F08080861
S1130E467F00417F41002040413F017F0814224139
S1130E567F404040407F020C027F7F0408107F3EA3
S1130E664141413E7F090909063E4151215E7F0900
S1130E76192946264949493201017F01013F40406B
S1130E86403F1F2040201F3F4038403F6314081452
S1130E966307087008076151494543007F414100D3
S1130EA602040810200041417F00040201020440AC
S1130EB640404040000102040020545454787F48C6
S1130EC64444383844444420384444487F385454CD
S1130ED65418087E0901020C5252523E7F0804043B
S1130EE67800047D00002040443D007F1028440023
S1130EF600417F40007C0418047C7C080404783894
S1130F06444444387C14141408081414187C7C08CB
S1130F160404084854545420043F4440203C4040B0
S1130F26207C1C2040201C3C4030403C4428102897
S1130F36440C5050503C4464544C44000836410020
S1130F460000770000004136080008040810084D28
S1130F5641580053636F72650053706565640048B9
S1130F662E530031202D2053544152540032202D4B
S1130F762052455345540033202D204C414E4520E4
S1130F86310034202D204C414E4520320035202D91
S1130F96204C414E4520330036202D204C414E45F1
S1070FA620340000EF
S9030000FC
