:1000000045C0000060C000005EC000005CC0000091
:100010005AC0000058C0000056C0000054C0000084
:1000200052C0000050C000004EC000004CC0000094
:100030004AC0000048C0000079C1000044C0000070
:1000400042C0000040C000003EC000003CC00000B4
:100050003AC0000038C0000036C0000034C00000C4
:1000600032C0000030C000002EC000002CC00000D4
:100070002AC0000028C0000026C0000024C00000E4
:1000800022C0000020C000001EC0000011241FBEBE
:10009000CFEFD0E1DEBFCDBF12E0A0E0B1E0E0E7FE
:1000A000F3E000E00BBF02C007900D92A03FB10744
:1000B000D9F722E0A0EFB2E001C01D92A23FB20743
:1000C000E1F704D153C19CCF1D9A95E39A95F1F7BE
:1000D00000001C981E981F9A8BBB85E38A95F1F748
:1000E00000001D9808951D9A95E39A95F1F7000078
:1000F0001C981E9A1F988BBB85E38A95F1F7000028
:100100001D9808951D9A95E39A95F1F700001C98A3
:100110001E9A1F9A8BBB85E38A95F1F700001D9804
:1001200008951D9A95E39A95F1F700001C9A1E9880
:100130001F9A8BBB85E38A95F1F700001D980895FF
:100140001D9A95E39A95F1F700001C9A1E9A1F9844
:100150008BBB85E38A95F1F700001D9808951D9AE1
:1001600095E39A95F1F700001C9A1E9A1F9A8BBB93
:1001700085E38A95F1F700001D9808950F931F936A
:10018000CF93DF93162FC42F8854BCDF812F1A30F2
:1001900030F4880F810F880F8C5B96DF08C090E0E9
:1001A0000A97982F990F890F880F805C9CDF85E054
:1001B000C89FE0011124C05ADF4F05E088811A3042
:1001C00010F4AFDF01C0BCDF015021960111F6CF62
:1001D00080E01A3028F4DF91CF911F910F91A1CFC9
:1001E000DF91CF911F910F91ABCFEF92FF920F93C1
:1001F0001F93CF93DF93F62EEA01885483DF89E0C3
:100200008F1538F08F2D880F8F0D880F8C5B5CDF7A
:1002100009C08F2D90E00A97982F990F890F880FAA
:10022000805C61DF85E0E82E88818823B1F19AE067
:10023000F91202C080E457DF00E010E0888199E005
:100240009F1570F090E08097E89EF001E99EF00D18
:100250001124E050FF4FE00FF11F808162DF0DC0DD
:1002600090E08097E89EF001E99EF00D1124E050A7
:10027000FF4FE00FF11F808163DF0F5F1F4F0530DD
:100280001105E1F689E08F1518F080E04ADF02C021
:1002900080E056DF2196F394C7CFDF91CF911F9175
:1002A0000F91FF90EF900895CF93DF93C8EB8C2FC1
:1002B00029DF80E427DFD0E480E051DFD150E1F78F
:1002C000CF5FC03CA1F7DF91CF9108958FEF8ABB3C
:1002D00088BB87BB11BA82B9109265008093640015
:1002E0008FE310DF88EB0EDF80E40CDFDDDF4BED0A
:1002F00052E060E080E079DF8BE08DBD8CED8CBD5D
:100300001FBC84E08EBD87BF78941092F0021092DB
:10031000F1024091F002405D63E081E02FDF409107
:10032000F102405D64E081E029DFF3CF1F920F927C
:100330000FB60F9211248F938091F1028F5F8A3054
:1003400019F08093F1020CC01092F1028091F0023A
:100350008F5F863019F08093F00202C01092F00295
:100360008F910F900FBE0F901F901895F894FFCFAC
:10037000000000000000004F00000007000700140C
:100380007F147F14242A7F2A1223130864623649BB
:100390005522500005030000001C224100004122AC
:1003A0001C0014083E081408083E080800503000DD
:1003B0000008080808080060600000201008040217
:1003C0003E5149453E00427F40004261514946212D
:1003D00041454B311814127F1027454545393C4A99
:1003E00049493001710905033649494936064949E9
:1003F000291E00363600000056360000081422413F
:1004000000141414141400412214080201510906A6
:10041000324979413E7E1111117E7F494949363E6C
:10042000414141227F4141221C7F494949417F0985
:100430000909013E4149497A7F0808087F00417F48
:1004400041002040413F017F081422417F4040404D
:10045000407F020C027F7F0408107F3E4141413EF5
:100460007F090909063E4151215E7F091929462667
:100470004949493201017F01013F4040403F1F206F
:1004800040201F3F4038403F631408146307087042
:1004900008076151494543007F41410002040810AB
:1004A000200041417F0004020102044040404040DE
:1004B000000102040020545454787F4844443838E2
:1004C00044444420384444487F3854545418087EE7
:1004D0000901020C5252523E7F0804047800047D48
:1004E00000002040443D007F1028440000417F4030
:1004F000007C0418047C7C080404783844444438A4
:100500007C14141408081414187C7C08040408488B
:1005100054545420043F4440203C4040207C1C2044
:1005200040201C3C4030403C44281028440C505093
:10053000503C4464544C44000836410000007700AD
:100540000000413608000804081008436C6F636B14
:1005500020496E74657272757074205465737400EE
:00000001FF
